:100000000C9495050C94DC050C94DC050C94DC0533
:100010000C94DC050C94DC050C94DC050C94DC05DC
:100020000C94DC050C94DC050C94F1240C94C32591
:100030000C9471180C94DC050C94DC050C94DC0514
:100040000C94DC050C94DC050C94DC050C94DC05AC
:100050000C94DC050C94E5180C94DC050C94DC0580
:100060000C94DC050C94DC050C94DC050C94DC058C
:100070000C94DC050C94DC050C94DC050C94DC057C
:100080000C94DC050C94DC050C94DC050C94DC056C
:100090000C94DC050C94DC050C94DC050C94DC055C
:1000A0000C94DC050C94DC050C94DC0548074A072D
:1000B00055074C074E075007520754075707590773
:1000C0005B0766075D075F076107630765076807EA
:1000D000420F420F7C0F7C0FBB0FDB0F4E114E11F6
:1000E0001D104E11CD10CD1040114E114E11481162
:1000F000DA10DA10DA10DA10DA10DA10DA10DA10B0
:10010000DA10DA10DA10DA10DA10DA10DA10DA109F
:10011000EC10FA10011108111211E111E111F311A3
:10012000F311EA11F311F311F311E111E111EF11E0
:10013000F311F311EF113026572649275726492787
:10014000A326C62649271C272B2729003A003B0057
:100150003C003D003E003F004000410042003502AF
:100160001E001F0020002100220023002400250083
:1001700026002B0014001A000800150017001C00B0
:1001800018000C00120039000400160007000900D6
:100190000A000B000D000E000F00E1001D001B0007
:1001A0000600190005001100100036003700E000BD
:1001B000E300E2002C00E600E400500051004F0094
:1001C000620043004400450049004C004A004D00D5
:1001D0004B004E00380027002D002E002A0053004F
:1001E000540055005600E500520013002F00300067
:1001F00031005F0060006100570059005A00330071
:10020000340028005C005D005E005B005800630065
:10021000000044454255473A20656E61626C656452
:100220002E0A000A002530313662003A20002530BF
:100230003258000A722F632030313233343536376A
:1002400038394142434445460A000A0025303258B5
:1002500020006B6579626F6172645F7265706F72A6
:10026000743A20000A0025303258006B6579626FBD
:100270006172645F7365745F6C65643A2000290A7B
:10028000002575002F002575005D280025640020DD
:1002900000256400200025640020002564007C0007
:1002A00025303258006D6F7573656B6579205B6220
:1002B000746E7C782079207620685D287265702FB6
:1002C00061636C293A205B006D6B5F776865656CD4
:1002D0005F74696D655F746F5F6D6178203D202587
:1002E000640A006D6B5F776865656C5F6D61785F50
:1002F0007370656564203D2025640A006D6B5F7432
:10030000696D655F746F5F6D6178203D2025640ABB
:10031000006D6B5F6D61785F7370656564203D2073
:1003200025640A006D6B5F696E74657276616C207E
:100330003D2025640A006D6B5F64656C6179203D2A
:100340002025640A006D6B5F776865656C5F746972
:100350006D655F746F5F6D6178203D2025640A00D4
:100360006D6B5F776865656C5F6D61785F737065F5
:100370006564203D2025640A006D6B5F74696D65BE
:100380005F746F5F6D6178203D2025640A006D6B9E
:100390005F6D61785F7370656564203D2025640A38
:1003A000006D6B5F696E74657276616C203D20250F
:1003B000640A006D6B5F64656C6179203D20256483
:1003C0000A000A00257500363A20776865656C5F7B
:1003D00074696D655F746F5F6D61783A20000A0023
:1003E000257500353A20776865656C5F6D61785FCB
:1003F00073706565643A20000A00257500343A2060
:1004000074696D655F746F5F6D61783A20000A00F2
:10041000257500333A206D61785F73706565643AC5
:1004200020000A00257500323A20696E74657276E4
:10043000616C286D73293A20000A00257500313A55
:100440002064656C6179282A31306D73293A200067
:100450000A092D2056616C756573202D0A004D3EEA
:10046000004D25643E20003F00736574206465667E
:1004700061756C740A00433E2000776865726520E0
:1004800064656C74613A20637572736F723D2564A4
:100490002C20776865656C3D25640A536565206886
:1004A0007474703A2F2F656E2E77696B697065646E
:1004B00069612E6F72672F77696B692F4D6F757346
:1004C000655F6B6579730A000A092D204D6F75739E
:1004D000656B6579202D0A4553432F713A09717573
:1004E00069740A313A0964656C6179282A31306D82
:1004F00073290A323A09696E74657276616C286DE7
:1005000073290A333A096D61785F73706565640A0F
:10051000343A0974696D655F746F5F6D61780A358F
:100520003A09776865656C5F6D61785F73706565C2
:10053000640A363A09776865656C5F74696D655F52
:10054000746F5F6D61780A0A703A097072696E742F
:100550002076616C7565730A643A0973657420646A
:10056000656661756C74730A75703A092B310A649B
:100570006F776E3A092D310A706775703A092B3121
:10058000300A7067646F776E3A092D31300A0A734A
:1005900070656564203D2064656C7461202A206D5F
:1005A00061785F7370656564202A202872657065C4
:1005B0006174202F2074696D655F746F5F6D617861
:1005C000290A003F004D3E2000433E20004C256498
:1005D0000A0074696D65725F72656164333228293F
:1005E0003A202530346C580A006B6579626F61726D
:1005F000645F69646C653A2025580A006B6579620E
:100600006F6172645F70726F746F636F6C3A2025F4
:10061000580A00686F73745F6B6579626F6172640A
:100620005F6C65647328293A2025580A000A092D51
:1006300020537461747573202D0A004743433A2098
:10064000342E392E32204156522D4C4942433A2005
:10065000312E382E3073766E204156525F41524310
:10066000483A20617672350A004F5054494F4E5334
:100670003A204C554641204D4F5553454B45592046
:1006800045585452414B455920434F4E534F4C45CA
:1006900020434F4D4D414E4420343039360A0042FC
:1006A00055494C443A2022302E352E3132392D31E5
:1006B000312D673135393463612D64697274792263
:1006C000202831363A33393A353320536570203299
:1006D000352032303137290A005649443A203078E3
:1006E0004645454428416C6272657429205049444E
:1006F0003A20307836303630287777393929205605
:1007000045523A203078303030310A004445534366
:100710003A204120637573746F6D206B6579626F49
:100720006172640A000A092D2056657273696F6E42
:10073000202D0A000A092D20436F6E736F6C65200F
:100740002D0A4553432F713A09717569740A6D3A40
:10075000096D6F7573656B65790A000A092D204D67
:1007600061676963202D0A443A0944656275672010
:100770004D65737361676520546F67676C650A58D0
:100780003A094D6174726978204465627567204D3D
:100790006F646520546F67676C65202D2053686F08
:1007A00077206B65797072657373657320696E204D
:1007B0006D617472697820677269640A4B3A094BFB
:1007C0006579626F61726420446562756720546F59
:1007D00067676C65202D2053686F77206B65797093
:1007E00072657373207265706F72740A4D3A0944B2
:1007F00065627567204D6F75736520546F67676C10
:10080000650A563A0956657273696F6E0A533A095A
:100810005374617475730A433A094163746976616C
:10082000746520436F6E736F6C65204D6F64650A4D
:1008300046312D4631303A09537769746368207424
:100840006F204C6179657220302D39202846313077
:10085000203D204C30290A302D393A0953776974EC
:10086000636820746F204C6179657220302D390ADD
:100870004553433A0953776974636820746F204C79
:100880006179657220302028616C7465726E6174C4
:1008900065206B65792031290A47524156453A094E
:1008A00053776974636820746F204C617965722096
:1008B000302028616C7465726E617465206B657997
:1008C0002032290A50415553453A094A756D702026
:1008D000746F20426F6F746C6F6164657220285270
:1008E00065736574290A003F000A6D6F7573653A78
:1008F000206F66660A000A6D6F7573653A206F6E29
:100900000A000A6B6579626F6172643A206F6666ED
:100910000A000A6B6579626F6172643A206F6E0A31
:10092000000A6D61747269783A206F66660A000A7F
:100930006D61747269783A206F6E0A000A646562AC
:1009400075673A206F66660A000A64656275673AE1
:10095000206F6E0A000A0A4A756D70696E6720740E
:100960006F20626F6F746C6F616465722E2E2E2023
:1009700000433E20005B735D004B6579626F6172DE
:10098000642073746172742E0A005B575D005B53C0
:100990005D005B525D005B445D005B435D000A03EC
:1009A000770077003900390000000E0341006C0029
:1009B000620072006500740000000403090409026B
:1009C0007400040100A0FA09040000010301010001
:1009D0000921110100012240000705810308000AD6
:1009E0000904010001030102000921110100012293
:1009F0004D000705820308000A09040200010300F4
:100A000000000921110100012236000705830308B7
:100A1000000A09040300020300000009211101007B
:100A2000012222000705840320000107050403209A
:100A300000011201100100000008EDFE60600100DD
:100A4000010200010631FF0974A101097515002694
:100A5000FF009520750881020976150026FF009594
:100A60002075089102C005010980A10185021601C7
:100A7000002603001A81002A830075109501810069
:100A8000C0050C0901A1018503160100269C021A6C
:100A900001002A9C02751095018100C00501090220
:100AA000A1010901A1000509190129051500250168
:100AB00095057501810295017503810105010930D4
:100AC00009311581257F9502750881060938158140
:100AD000257F950175088106050C0A3802158125C8
:100AE0007F950175088106C0C005010906A10105B1
:100AF0000719E029E7150025019508750181029580
:100B000001750881010508190129059505750191EF
:100B1000029501750391010507190029FF150026AB
:100B2000FF00950675088100C00011241FBECFEF9D
:100B3000DAE0DEBFCDBF04B603FE27C080912002FD
:100B400090912102A0912202B09123028730904B14
:100B5000A740B04BD1F410922002109221021092C3
:100B600022021092230214BE84B7877F84BF0FB67F
:100B7000F894A8958091600088618093600010923D
:100B800060000FBEE0E0F8E3099511E0A0E0B1E0FD
:100B9000ECEDFFE402C005900D92A634B107D9F741
:100BA00022E0A6E4B1E001C01D92A032B207E1F755
:100BB0000E9414220C94EC270C940000FF93EF93F6
:100BC000E0914601F0914701309709F00995EF91C6
:100BD000FF910895FC018591803011F0EFDFFBCF8C
:100BE0000895FF27E0E230E247FF0CC0419597FFF0
:100BF00009C0EDE26095709580959095611D711D1D
:100C0000811D911D27FF02C0219530E350E2AA27E4
:100C1000660F771F881F991FAA1FA41710F0A41B27
:100C200063955A95A9F7AA3008F0A95FA05DAF9324
:100C3000F395611571058105910541F7ED3211F4C8
:100C4000EF93F395F21718F43F93F395FBCF8F9141
:100C5000B5DFFA95E1F70895E991F9918591803032
:100C600021F0853219F0AADFF9CF089520E0E89449
:100C700055915532C1F3503311F4689455915A335C
:100C800048F4505390F3220F022E220F220F200D12
:100C9000250FF4CF0EF4219589919991533619F3CC
:100CA000533729F1533559F1BC0188279927E89426
:100CB0005C3621F48991999168945591543639F4B0
:100CC00046EF7EF077FF0DC08FEF9FEF0AC05537DC
:100CD0004AE039F0583540E121F0523642E009F05F
:100CE0000895FF93EF937DDFEF91FF91B7CFFF93CF
:100CF000EF93FC0181918030B9F360DFFBCFFF936C
:100D0000EF9368DFF1CFDF93CF93CDB7DEB72596B2
:100D1000A3DFCF91DF9108950C94A4060C94A5064F
:100D20000C94A6060C94A80661110BC0FC018281EC
:100D3000882321F085EE0E94A20D03C085EE0E945B
:100D4000960E80E090E008950895089581E008955A
:100D5000089581E008950E94CF112FEF84E39CE075
:100D6000215080409040E1F700C000000C940B1926
:100D70000F931F93CF93DF938C01FC01C081D1812E
:100D8000CE010E949316BE010E94FC07EC01B8013F
:100D90000E949006882309F422C1B801CE010E9466
:100DA000580A882309F41BC1C531FCE5DF0791F51A
:100DB0000E944517282FF80182814091000150912F
:100DC0000101882379F02A7A91E009F490E0909368
:100DD0004801911102C069E201C065E3CA010E94A5
:100DE0001C180AC080914801811102C069E201C04B
:100DF00065E3CA010E941E180E94121781E08093C9
:100E00004D0180934E01C801DF91CF911F910F9149
:100E10000C94A906C6318CE5D80708F075C0C1301E
:100E2000ECE5DE0779F4F8018281882309F4D7C064
:100E30008091F00181608093F00182E192E00E9454
:100E4000EA05CDC0C230FCE5DF0708F451C0F80167
:100E500082818823C1F20E94CD17811102C00E94B5
:100E6000B3170E94E01790E0909312028093110252
:100E7000FE01E350FC45E231F10530F4EA5AFF4F40
:100E8000809111020C949C2780911102816027C0EF
:100E9000826025C0846023C0806121C080621FC041
:100EA00080641DC080681BC08460886018C08E7F0D
:100EB00016C08D7F14C08B7F12C08F7E10C08F7DB7
:100EC0000EC08F7B0CC08F770AC08B7F877F07C0D7
:100ED00087FB222720F991E0922790FB87F98093E6
:100EE0001102809111020E94E4170E94CF1177C075
:100EF000C115DC4509F082CFF8018281882309F40D
:100F00006EC00E94AB066BC0C43DECE5DE0739F550
:100F1000F8018281882361F010924E010E94A3188B
:100F200090934C0180934B0180E20E94F50E57C0D4
:100F300080914E0181110FC080914B0190914C0125
:100F40000E94BB18883C910530F487E20E94A20DF4
:100F500087E20E94960E80E20E94FC0E40C0C53DD2
:100F6000FCE5DF0738F5C33DDC4509F047CFF80164
:100F70008281882351F010924D010E94A318909312
:100F80004A018093490182E0D0CF80914D018111C7
:100F90000FC08091490190914A010E94BB18883C82
:100FA000910530F486E20E94A20D86E20E94960E20
:100FB00082E0D2CFC73DECE5DE0731F4F801828153
:100FC000882369F080E009C0C83DDC4509F016CFF0
:100FD000F8018281882319F082E00E94B42280E027
:100FE000DF91CF911F910F9108950C948C060C9472
:100FF0008E060C94920608959AE0799FF0011124D0
:1010000094E6899FE00DF11D1124E60FF11DEE0F0E
:10101000FF1FE65BFE4F859194910895880F991FFD
:10102000FC01E65BFE4F859194910895CF93DF9389
:101030000E94FC070E94AE09EC01811520E4920792
:10104000B0F5811540E3940708F0E1C0803E9105BA
:10105000D0F4803C910508F06FC0883A910570F497
:10106000853A910508F06BC08130910509F472C191
:1010700008F429C1049708F06DC125C18D3B910585
:1010800008F468C020C18F3F910509F048F4803F03
:10109000910508F0B6C0883E910508F45BC113C104
:1010A000811550E2950708F455C19F70ACC08115B9
:1010B00064E59607D8F4C11583E5D80708F0E2C0C7
:1010C000C11521E5D20740F4C11540E5D40708F069
:1010D000A7C0DF70D06A3EC1C11552E5D50708F040
:1010E000BBC0DC2FCC27C16FD06A34C1811566E547
:1010F000960750F4C11585E5D80708F0D9C0DC2F54
:10110000CC27C46FD06A26C1811528E5920708F460
:10111000DAC0811549E5940708F4D0C090568115CE
:10112000904208F0D0C08D2F8F710E942B0ADD27CE
:10113000D0628F71D82B0EC1805C910964C0853A52
:10114000910509F4C3C0863A910509F0C2C0C2E80E
:10115000D0E400C1883A910509F4BEC0893A9105EE
:1011600009F4BDC08A3A910509F4BCC08B3A9105D7
:1011700009F4BBC08C3A910509F4BAC08B3B9105C8
:1011800009F4B9C08C3B910509F4B8C08D3A9105BA
:1011900009F4B7C0803B910509F4B6C08E3A9105B9
:1011A00009F4B5C08F3A910509F4B4C0813B9105AB
:1011B00009F4B3C0823B910509F4B2C0833B9105A9
:1011C00009F4B1C0843B910509F4B0C0853B910599
:1011D00009F4AFC0863B910509F4AEC0873B910589
:1011E00009F4ADC0883B910509F4ACC0893B910579
:1011F00009F4ABC08A3B910509F4AAC0C0E0D4E46D
:10120000A9C0D065A7C00E940E08EC01A3C0992711
:10121000D3FF03C0EC01D86C9DC0EC01D06C9AC028
:101220002C2F237081E090E002C0880F991F2A952F
:10123000E2F79C689E0144E0369527954A95E1F7D0
:101240002370922BCF70C695C69560E2C69FE001D1
:101250001124C82BD92B7EC02C2F2695269580E2F1
:10126000289F90011124C370DD2781E090E0AC013C
:1012700002C0440F551FCA95E2F7EA01C22BD32BD7
:10128000DC6868C02C2F2695269580E2289F900167
:101290001124C370DD2781E090E0AC0102C0440F4F
:1012A000551FCA95E2F7EA01C22BD32BDA6852C068
:1012B000CF71DD27DC2FCC27D0624CC0DC2FCC27B0
:1012C000C06FD06A47C0C0E0D0E044C0C1E8D0E4FD
:1012D00041C0C3E8D0E43EC0C2EED4E43BC0C9EE96
:1012E000D4E438C0CAEED4E435C0C5EBD4E432C08F
:1012F000C6EBD4E42FC0C3EBD4E42CC0C4EBD4E4DD
:1013000029C0C7EBD4E426C0CCECD4E423C0CDEC98
:10131000D4E420C0C3E8D5E41DC0CAE8D5E41AC0AF
:10132000C2E9D5E417C0C4E9D5E414C0C1E2D6E4EB
:1013300011C0C3E2D6E40EC0C4E2D6E40BC0C5E2DD
:10134000D6E408C0C6E2D6E405C0C7E2D6E402C0CF
:10135000CAE2D6E4CE01DF91CF910895823891059B
:1013600049F1B0F48133910509F458C048F4893249
:10137000910509F44EC08A32910509F454C00895CC
:101380008533910509F440C08933910599F008959A
:10139000833E910529F138F4803E910591F0823E1B
:1013A0009105A1F00895863E9105F9F0873E9105DB
:1013B00031F108952091110220FD3AC021FD38C07D
:1013C00008958091110280FD35C032C080911102D4
:1013D00082FF32C08091110284FD30C083EE39C09B
:1013E0008091110282FD28C0F5CF8091110283FF08
:1013F00027C08091110284FD21C087EE2AC0809110
:10140000110283FD1DC0F5CF8091110285FD1AC028
:101410001BC08091110285FD17C014C0809111027C
:1014200086FD14C015C08091110286FD11C00EC04A
:1014300080EE0FC089E30DC082EE0BC080E009C0D2
:1014400086EE07C089E205C085E303C08AE201C0D9
:1014500081E390E00895CF93C82F0E94E01790E0B9
:10146000909312028093110282FF0DC09C2F9871FD
:10147000983019F4C77FC46006C09C2F94719430D3
:1014800011F4CB7FC86083FF0DC09C2F98719831F9
:1014900019F4C77EC46106C09C2F9471943111F475
:1014A000CB7EC86184FDC77E8C2FCF9108950895AF
:1014B0000F931F93CF93FB012281211102C0C1E042
:1014C00041C08C01C0915C01C11125C086319C4591
:1014D000B1F70E94570A81E080935C010E94A31833
:1014E00090935B0180935A0110924F011092510129
:1014F0001092500110925301109252011092550116
:1015000010925401109257011092560110925901F5
:101510001092580117C080915A0190915B010E946E
:10152000BB18883C910558F690914F01E92FF0E0E7
:10153000EE0FFF1FE05BFE4F118300839F5F9093D0
:101540004F01C0E08C2FCF911F910F91089585B767
:10155000806885BF85B7806885BFADE1B1E041E0B7
:1015600050E02AE02A0F8D91E82FE295EF70F0E02D
:1015700031A18F70BA0102C0660F771F8A95E2F71A
:10158000CB01962F9095932391A392A1892B82A3AF
:101590002A13E9CFA3E1B1E041E050E02AE02A0FAD
:1015A0008D91E82FE295EF70F0E031A18F70BA01D4
:1015B00002C0660F771F8A95E2F7CB01962F9095B0
:1015C000932391A392A1892B82A32A13E9CFE1E768
:1015D000F1E0ADE5B1E0119211921D921D9271E022
:1015E000E538F707C1F70C94F5072F923F925F9209
:1015F0006F927F928F929F92AF92BF92CF92DF9223
:10160000EF92FF920F931F93CF93DF932DE1C22EA2
:1016100021E0D22E0DE511E0E801EE24E394F12C57
:10162000662463945E018880998019821882D601AD
:101630008D916D01E82FE295EF70F0E021A18F70A0
:10164000A70102C0440F551F8A95E2F7CA01242B57
:1016500021A322A1742E7094272122A350EA5A9527
:10166000F1F793E1292E91E0392E20E030E0D1010D
:101670007D911D01472F42954F7050E0DA01909601
:101680005C90488159817F70D70102C0AA0FBB1FAF
:101690007A95E2F7BD01652141F4B701022E02C03F
:1016A000660F771F0A94E2F702C060E070E0462BF5
:1016B000572B598348832F5F3F4F2A303105B9F6A6
:1016C00091A1792271A292A1892B82A32296F50180
:1016D000808191818816990641F0609285010E946F
:1016E000A3189093870180938601F1E0C137DF074B
:1016F00009F098CF809185018823B1F0809186010F
:10170000909187010E94BB18069770F0E1E7F1E025
:10171000D8018D919D918D0181939193B1E0013715
:101720001B07B1F7109285010E94F70781E0DF9156
:10173000CF911F910F91FF90EF90DF90CF90BF90CE
:10174000AF909F908F907F906F905F903F902F9081
:101750000895E82FF0E0EE0FFF1FEF58FE4F808155
:1017600091810895CF92DF92EF92FF920F931F9392
:10177000CF93DF9383E392E00E94EA0581E7E82EAE
:1017800081E0F82EC0E0D0E09EE2C92E92E0D92E92
:1017900005E212E0DF93CF93DF92CF920E9483069F
:1017A0008BE292E00E94EA05F701819191917F011D
:1017B0000E9499179F938F931F930F930E94830604
:1017C00083E292E00E94EA0521968DB79EB70896C3
:1017D0000FB6F8949EBF0FBE8DBFCA30D105D1F6AB
:1017E000DF91CF911F910F91FF90EF90DF90CF90FD
:1017F000089590938D0180938C010895E0918C0160
:10180000F0918D01309721F00190F081E02D099445
:1018100080E00895EF92FF920F931F93CF93DF9391
:10182000E0918C01F0918D013097B1F18C01028033
:10183000F381E02D09958091F00182FF2DC080FF9A
:1018400004C082E592E00E94EA05E80118E08CE419
:10185000E82E82E0F82E8091F00180FF0BC0888195
:101860001F928F93FF92EF920E9483060F900F902A
:101870000F900F90115021961111EDCF8091F00132
:1018800080FF0AC08AE492E0DF91CF911F910F910F
:10189000FF90EF900C94EA05DF91CF911F910F918B
:1018A000FF90EF900895E0918C01F0918D013097B9
:1018B00021F00480F581E02D0994089520918A019A
:1018C00030918B018217930771F090938B01809375
:1018D0008A01E0918C01F0918D01309721F0068012
:1018E000F781E02D099408952091880130918901B4
:1018F0008217930771F09093890180938801E0919A
:101900008C01F0918D01309721F00084F185E02D5C
:101910000994089508950C948A0C0E949A180E94C4
:10192000A70A0C942D19CF93C82F8091F00182FF44
:101930001EC080FF04C08BE692E00E94EA05809101
:10194000F00180FF0CC01F92CF9386E692E09F9338
:101950008F930E9483060F900F900F900F908091AD
:10196000F00180FF04C084E692E00E94EA058C2F1B
:10197000CF910C94F9074F925F927F928F929F9232
:10198000AF92BF92CF92DF92EF92FF920F931F938D
:10199000CF93DF93CDB7DEB72A970FB6F894DEBFAB
:1019A0000FBECDBF0E94F50A9FE8C92E91E0D92E47
:1019B00000E010E0AA24A394B12C702E802F0E9486
:1019C000A90B4C01F601419051906F014826592610
:1019D00041145104B1F40F5F1F4F0A30110569F72C
:1019E0008FEF89838A831B820E94A3188160782FDE
:1019F0009D838C8349815A816B818D810E94740DF6
:101A00003AC08091F00181FD0E94B20B20E030E0ED
:101A10007501022E02C0EE0CFF1C0A94E2F7C7010A
:101A200084219521892B09F12E837F828E209F208E
:101A300091E0892809F490E098870E94A3188160BA
:101A4000782F9A8789874E815F8168858A850E9471
:101A5000740D000F111FF801E157FE4F8081918135
:101A6000E826F926F182E08206C02F5F3F4F2A3038
:101A7000310571F6B0CF0E94421B10918E010E9479
:101A8000FE0B1817D9F00E94FE0B80938E012A9648
:101A90000FB6F894DEBF0FBECDBFDF91CF911F917F
:101AA0000F91FF90EF90DF90CF90BF90AF909F90FD
:101AB0008F907F905F904F900C94930C2A960FB666
:101AC000F894DEBF0FBECDBFDF91CF911F910F9174
:101AD000FF90EF90DF90CF90BF90AF909F908F904E
:101AE0007F905F904F900895CF93DF93CDB7DEB78F
:101AF0002B970FB6F894DEBF0FBECDBF4F8358872C
:101B000069877A878B87DE01119686E0FD01119245
:101B10008A95E9F785E0FE01379601900D928A9546
:101B2000E1F749815A816B817C818D819E810E9480
:101B300067142B960FB6F894DEBF0FBECDBFDF91B2
:101B4000CF910895CF93DF931F92CDB7DEB788234F
:101B500009F4E8C0682F823879F40E94FE0B81FDF9
:101B6000E1C069E380910001909101010E941C187D
:101B70000E94121769E310C08338C9F40E94FE0B5B
:101B800080FDD0C063E580910001909101010E9429
:101B90001C180E94121763E58091000190910101C9
:101BA0000E941E180F90DF91CF910C941217843869
:101BB00079F40E94FE0B82FDB5C067E480910001BC
:101BC000909101010E941C180E94121767E4E4CF53
:101BD0008CEF860F813A70F4862F69830E94621E13
:101BE000698181119FC080910001909101010E9443
:101BF0001C18D8CF80E2860F883048F4677081E0E7
:101C000001C0880F6A95EAF70E944817CBCF8BE591
:101C1000860F833088F4653A29F0663A31F083E81C
:101C200090E005C081E890E002C082E890E00F906B
:101C3000DF91CF910C945E0C88E5860F853108F01A
:101C400071C0683A61F1693A69F16A3A71F16B3AC7
:101C500079F16C3A81F16B3B89F16C3B91F16D3A12
:101C600099F1603BA1F16E3AA9F16F3AB1F1613B94
:101C7000B9F1623BC1F1633BC9F1643BD1F1653B12
:101C8000D9F1663BE1F1673BE9F1683BF1F1693B72
:101C9000F9F16A3B09F43FC080E090E03EC082EE7B
:101CA00090E03BC089EE90E038C08AEE90E035C00D
:101CB00085EB90E032C086EB90E02FC083EB90E0A4
:101CC0002CC084EB90E029C087EB90E026C08CEC20
:101CD00090E023C08DEC90E020C083E891E01DC02F
:101CE0008AE891E01AC082E991E017C084E991E0A6
:101CF00014C081E292E011C083E292E00EC084E25F
:101D000092E00BC085E292E008C086E292E005C056
:101D100087E292E002C08AE292E00F90DF91CF91D9
:101D20000C94740C0F90DF91CF910895882309F4DF
:101D30005BC0682F823879F40E94FE0B81FF54C08B
:101D400069E380910001909101010E941C180E949A
:101D5000121769E310C08338B1F40E94FE0B80FFB4
:101D600043C063E580910001909101010E941C181D
:101D70000E94121763E580910001909101010E9479
:101D80001E180C941217843879F40E94FE0B82FFFF
:101D90002BC067E480910001909101010E941C1802
:101DA0000E94121767E4E7CF8CEF860F813A18F391
:101DB00080E2860F883048F4677081E001C0880FA8
:101DC0006A95EAF70E944E17DCCF8BE5860F8330C9
:101DD00020F480E090E00C945E0C685A653120F4A9
:101DE00080E090E00C94740C0895882321F00E9408
:101DF00048170C9412170895882321F00E944E175B
:101E00000C94121708954F925F926F927F92AF9247
:101E1000BF92CF92DF92EF92FF920F931F93CF93D7
:101E2000DF931F92CDB7DEB77C01A72EFC010581A1
:101E300002950F701281112321F069830E946517AA
:101E4000698169830E940B176981882381F01123BE
:101E500071F080E2860F883050F082E00E94F41624
:101E60000E940B1791E0B82EB926698101C0B12CF0
:101E7000CA2CC2948FE0C822D12CF601E859FF4F3A
:101E80000C949C278A2D807F0A2D0F70882311F0D7
:101E90000295007F1123C1F0002309F4DCC180E228
:101EA000860F883010F0611105C0802F69830E9471
:101EB000481704C0802F69830E945817698169837D
:101EC0000E9412176981C7C1862F69830E94960EEE
:101ED0006981002309F4E2C180E2860F883010F0A6
:101EE000611104C0802F0E944E1703C0802F0E94F2
:101EF0005E170E941217D2C18A2D807F9A2D9F7083
:101F0000803211F4892F03C0892F8295807F662348
:101F100019F06130B1F01FC0112349F0002309F41A
:101F200052C1013009F04FC10E947817B7C1002398
:101F300019F0013009F4B2C189830E947B178981AD
:101F400048C1112321F0063008F0A8C13CC105307A
:101F500008F0A4C13EC1112351F0002309F433C19C
:101F6000F701958190FF77C19F7095832CC1002365
:101F700009F42FC181C18A2D86958695837090E0E2
:101F8000009719F0019761F089C1112321F0862F84
:101F90009A2D937002C080E090E00E945E0C8EC18A
:101FA000112321F0862F9A2D937002C080E090E0DB
:101FB0000E94740C83C11123F9F0653F51F0663F14
:101FC00071F0643FA9F480910B0290910C02816042
:101FD0000BC080910B0290910C02826005C0809131
:101FE0000B0290910C02846090930C0280930B0280
:101FF000862F0E94C8191EC0653F51F0663F71F0E0
:10200000643FA9F480910B0290910C028E7F0BC06B
:1020100080910B0290910C028D7F05C080910B0284
:1020200090910C028B7F90930C0280930B02862F71
:102030000E94301A0E94B51A41C18A2D837009F09E
:1020400052C0111137C1862F829586958770880FEF
:10205000880F962F9F70492E512C612C712C082EC1
:1020600004C0440C551C661C771C0A94D2F764FF0C
:1020700014C00FE010E020E030E0B901A80104C076
:10208000440F551F661F771F8A95D2F7CB01BA01FF
:10209000609570958095909503C060E070E0CB01ED
:1020A0002A2D26952695237030E02230310569F0DF
:1020B0002330310589F06429752986299729213033
:1020C000310571F00E94AA15F5C064297529862989
:1020D00097290E94BC15EEC00E94AA15C301B20147
:1020E0000E949815E7C0112319F08A2D817001C054
:1020F0008695882309F4DEC0862F829586958770A1
:10210000880F880F962F9F70492E512C612C712CAF
:10211000082E04C0440C551C661C771C0A94D2F788
:1021200064FF14C00FE010E020E030E0B901A80126
:1021300004C0440F551F661F771F8A95D2F7CB0145
:10214000BA01609570958095909503C060E070E04D
:10215000CB012A2D269526952370422F50E0423040
:10216000510569F04330510589F0642975298629A4
:1021700097294130510571F00E946E169BC0642969
:102180007529862997290E94801694C00E946E1690
:10219000C301B2010E945C168DC0862F90E0FC0145
:1021A000E05EF109E531F10508F051C0E858FF4F54
:1021B0000C949C27062F0F708A2D8F71112331F0FC
:1021C0000E94F515802F0E94F50E68C00E94161619
:1021D000802F0E94FC0E62C0112341F0053008F0F0
:1021E0005DC08A2D8F710E943B1658C0063008F0E2
:1021F00055C0F7CF112339F08A2D8F710E94F51544
:102200004DC01123C9F38A2D8F710E94161646C046
:10221000112329F08A2D8F710E94E0153FC00E9482
:10222000DB153CC0112351F01A2D1F71812F0E9424
:10223000F51563E0812F0E94EB1630C081E00E940B
:10224000F416023058F182E00E94F41627C01123E0
:1022500031F0002389F2862F0E94A20D1FC00023B7
:1022600091F2693349F45FEF77EE83E051507040AB
:102270008040E1F700C00000862F0E94960E0EC03D
:102280004A2D4F70C7010E9494060E940B1516C07C
:102290004A2D4F70C7010E94FB0710C098E0C91675
:1022A000D10441F05CF0FAE0CF1AD10822E0C21666
:1022B000D10420F40E94FE0B0E94F907BB2001F11B
:1022C0000E94E71680FD1CC0F70112820E94E116F1
:1022D0000E94F515C7010E9490110E94E1160F900F
:1022E000DF91CF911F910F91FF90EF90DF90CF90F2
:1022F000BF90AF907F906F905F904F900C941616A8
:102300000F90DF91CF911F910F91FF90EF90DF9091
:10231000CF90BF90AF907F906F905F904F90089557
:102320000F931F93CF93DF93EC01888199812B81C9
:102330003C81232BB9F09F3F11F48F3F99F0CE01E0
:102340000E94B806882371F0688179818A810E9491
:10235000DD168C010E9492160E949515B801CE01DF
:102360000E94030FDF91CF911F910F9108950E945A
:1023700065170E94751780910001909101010E94DC
:1023800020180E9412170E94D01B0E94B51A80E0EC
:1023900090E00E945E0C80E090E00C94740C0E942F
:1023A00055170C94B7110E94D216E92FE295EF70E1
:1023B000F0E03297EE30F105B0F4E357FF4F0C94A4
:1023C0009C27803F91F018F4803E68F40EC0843F53
:1023D00051F40BC0803E48F0813F29F406C093FBC6
:1023E000882780F9089580E0089581E00895CF93CB
:1023F000DF9300D000D01F92CDB7DEB70F900F90C3
:102400000F900F900F90DF91CF910895CF93DF93AE
:1024100000D000D000D0CDB7DEB726960FB6F89426
:10242000DEBF0FBECDBFDF91CF9108951F93CF9335
:10243000DF93C091A30116E08091A401C81799F021
:10244000D0E01C9FF0011D9FF00D1124EB55FE4FB5
:102450004081518162817381848195810E9406123D
:102460002196C770E9CFDF91CF911F9108954091D8
:10247000D5015091D6016091D7017091D80180911A
:10248000D9019091DA010C9406128091DA018295BB
:102490008F7009F054C08091D701882309F44FC090
:1024A0008091A301A091A4016091D5017091D60102
:1024B0004091D8015091D901B6E08A1709F43FC084
:1024C00090E041155105C1F17F3F11F46F3FA1F13B
:1024D000B89FF001B99FF00D1124EB55FE4F2181FB
:1024E00072132AC02081621327C02281211124C0C7
:1024F000238134812417350710F421503109241B1E
:10250000350B283C3105C0F42091DA012F70206191
:102510002093DA0126E0289FF001299FF00D112475
:10252000E655FE4F80818F708061808385ED91E05C
:102530000E9490110C94161201968770BECF0895D8
:10254000CF92DF92EF92FF920F931F93CF93DF937F
:10255000CDB7DEB762970FB6F894DEBF0FBECDBF22
:102560008C0185E0F801DE011D9601900D928A959F
:10257000E1F7D8014C9111965C91119712966C91EC
:1025800012971396CD90DC9014973091D5017091ED
:10259000D6018091D8019091D901009709F46BC1BF
:1025A0007F3F19F43F3F09F466C1E090D701EE2068
:1025B00009F4C0C02091DA01C816D90628F0F60146
:1025C000E81BF90BCF0104C0809590958C0D9D1DE3
:1025D000FF24F394883C910578F0F12C207F09F0DA
:1025E000C6C07C2DD98AC88A89890E94F71185EDD9
:1025F00091E00E949011B1C0822F807F09F046C007
:10260000751314C0341312C0611110C02F702061F3
:102610002093DA010E94371285ED91E00E9490111B
:102620008091DA01D80115968C932EC0CD2819F12E
:102630005F3F11F44F3FF9F0F62E61111CC08091FD
:10264000A3012091A40136E0821709F45AC090E05A
:10265000389FF001399FF00D1124EB55FE4F718129
:10266000571306C07081471303C07281711103C0F4
:1026700001968770E9CFF62E662309F418C1809180
:10268000DA0181608093DA01F12C11C1751308C061
:10269000341306C0611104C08091DA01D801C3C0AF
:1026A0004D875E878D859E856A8B0E94D3116A89CE
:1026B0008823E1F16623D1F12091DA01822F8295FE
:1026C0008F7090E0029774F08091D5019091D601BF
:1026D00098878F831986DB86CA862C87CE0107965A
:1026E0000E94901186E0F801A5EDB1E001900D92F5
:1026F0008A95E1F70E9445120E943712FF24F39455
:10270000D6C04D875E878D859E850E94D216292F63
:1027100022952F7030E0223031050CF0BCC09F7044
:1027200009F0B6C0805E883008F4C1C0C8010E94BC
:102730009011E4CFC816D90608F453C0F601E81B7F
:10274000F90BCF01883C910508F450C0F12C7C2D89
:10275000D98AC88A89890E94F711E5EDF1E086E0FF
:10276000DF011D928A95E9F70E943712A0C0751308
:1027700014C0341312C0611110C08091DA01F80145
:102780008583C8010E94901186E0E5EDF1E0DF014C
:102790001D928A95E9F7FE2C8AC04D875E878D854C
:1027A0009E856A8B0E94D3116A89882309F4BECF63
:1027B000662309F4BBCF2091DA01822F82958F70B6
:1027C00090E002970CF48ECF8091D5019091D601C4
:1027D0009A8389831B82DD82CC822E83CE0101966F
:1027E0007FCF809590958C0D9D1DACCFF62E6623E6
:1027F00009F49CCF75132EC034132CC02091DA013C
:1028000020FD1FC0822F82958F70D9F0D8011596B8
:102810002C9315978F3049F08F5F982F9295907F6A
:10282000822F8F70892B15968C93C8010E9490116E
:1028300086E0F801A5EDB1E001900D928A95E1F7EF
:1028400093CF86E0F801A5EDB1E001900D928A9555
:10285000E1F72DC04D875E878D859E850E94D3113F
:10286000811140CF8091DA0181608093DA01C80143
:102870000E9490111CC0662309F458CF4D875E87D3
:102880008D859E850E94D311882309F44FCF2ACFCE
:10289000811148CF0CC0243031050CF047CF9F7018
:1028A00009F440CFF8019581907F09F03BCF8F2D3F
:1028B00062960FB6F894DEBF0FBECDBFDF91CF9109
:1028C0001F910F91FF90EF90DF90CF9008951F938D
:1028D000CF93DF93CDB7DEB72C970FB6F894DEBF5A
:1028E0000FBECDBF4F83588769877A878B879C87B8
:1028F000CE0107960E94A012882369F08F819885E7
:102900002A853B85232BF1F19F3F09F063C08F3F60
:1029100009F060C037C086E0FE013796DE011196EF
:1029200001900D928A95E1F76F817885EA85FB85A4
:10293000309741F17F3F11F46F3F21F12091A401C5
:1029400030E0C9010196877099274091A30150E0BA
:102950008417950709F447C069837A83FD83EC8364
:1029600096E0929FD001939FB00D1124AB55BE4FBE
:10297000FE01319601900D929A95E1F78093A401A2
:102980000E94161216E08091A3019091A40189176C
:10299000C1F1189FC00111248B559E4F0E94A012B7
:1029A000882379F1E091A3011E9FF0011124EB55DA
:1029B000FE4F4081518162817381848195810E94A3
:1029C00006128091A30190E0019687709927809369
:1029D000A301D9CF4F81588569857A858B859C85E0
:1029E0000E940612CFCF0E94CF111092A401109224
:1029F000A301E5EDF1E086E0DF011D928A95E9F79C
:102A0000C1CF2C960FB6F894DEBF0FBECDBFDF91BD
:102A1000CF911F910895EF92FF920F931F93CF9341
:102A2000DF938C01892B09F46CC0F12CEE24E39424
:102A3000E8012196F8018491843740F4843008F04D
:102A400051C0813081F0823019F15BC0853709F4C3
:102A500044C0A8F19CE7980F903708F052C08F77D8
:102A60000E94960E41C00E5F1F4FFE01C49180E28E
:102A70008C0F883048F4C7708E2D01C0880FCA951E
:102A8000EAF70E94681714C08C2F0E94A20D2DC077
:102A90000E5F1F4FFE01C49180E28C0F883058F406
:102AA000C7708E2D01C0880FCA95EAF70E946E1775
:102AB0000E9412171AC08C2F0E94960E16C00E5F2D
:102AC0001F4FFE01C491CC2381F08FE99FE0019755
:102AD000F1F700C00000C150F6CF0E5F1F4FFE019E
:102AE000F49003C00E94A20D8E018F2D882309F45B
:102AF0009FCFEFE9FFE03197F1F700C00000815070
:102B0000F5CFDF91CF911F910F91FF90EF90089536
:102B100008950E9488156093DF017093E00180930F
:102B2000E1019093E2010C94B71108950C9489157A
:102B30000F931F930091DF011091E0012091E101BB
:102B40003091E201602B712B822B932B1F910F91FF
:102B50000C9489150F931F930091DF011091E001F0
:102B60002091E1013091E2016023712382239323BC
:102B70001F910F910C9489150F931F930091DF0102
:102B80001091E0012091E1013091E201602771276D
:102B9000822793271F910F910C94891508950E9405
:102BA000CE156093DB017093DC018093DD0190937F
:102BB000DE010C94B71160E070E0CB010C94CF15EE
:102BC0000F931F9341E050E060E070E08A019B01A9
:102BD00004C0000F111F221F331F8A95D2F7C901AD
:102BE000B8011F910F910C94CF150F931F9341E0E3
:102BF00050E060E070E004C0440F551F661F771F6F
:102C00008A95D2F78091DB019091DC01A091DD01E2
:102C1000B091DE018A019B01082B192B2A2B3B2B3B
:102C2000C901B8011F910F910C94CF150F931F93F9
:102C300041E050E060E070E004C0440F551F661FA3
:102C4000771F8A95D2F74095509560957095809141
:102C5000DB019091DC01A091DD01B091DE018A01E0
:102C60009B01082319232A233B23C901B8011F9183
:102C70000F910C94CF150F931F9341E050E060E04B
:102C800070E004C0440F551F661F771F8A95D2F766
:102C90008091DB019091DC01A091DD01B091DE011A
:102CA0008A019B01082719272A273B27C901B80158
:102CB0001F910F910C94CF150F931F930091DB017F
:102CC0001091DC012091DD013091DE01602B712B30
:102CD000822B932B1F910F910C94CF150F931F9361
:102CE0000091DB011091DC012091DD013091DE01CA
:102CF00060237123822393231F910F910C94CF158E
:102D00000F931F930091DB011091DC012091DD01F5
:102D10003091DE0160277127822793271F910F9141
:102D20000C94CF150895CF92DF92EF92FF920F93FC
:102D30001F93CF93DF938C01C090DF01D090E0010F
:102D4000E090E101F090E2018091DB019091DC01E3
:102D5000A091DD01B091DE01C82AD92AEA2AFB2A16
:102D6000CFE1D0E0D701C6010C2E04C0B695A795DF
:102D7000979587950A94D2F780FF06C0B8018C2FEB
:102D80000E941608019721F4219760F780E001C0A6
:102D90008C2FDF91CF911F910F91FF90EF90DF90DB
:102DA000CF900895CF93DF93EC010E949316BE015C
:102DB0000E941608DF91CF910895CB010E94D21690
:102DC00008958091E3018595859585950895809175
:102DD000E3018770089598E0899F90011124262BC4
:102DE0002093E3010C94F5152091E3018095822353
:102DF0008093E301982F977069F430E0482F082EF4
:102E0000000C550B2417350729F085958595859578
:102E10000C94161608959091E301977081E009F4DF
:102E200080E00895E0910001F09101018091EF01AF
:102E30008083E0910001F091010190818091EE0189
:102E4000892B8083E0910001F091010190818091B4
:102E5000ED01892B80838091E401882381F0E0914A
:102E60000001F09101019081892B80838091000104
:102E7000909101010E94E91781111092E401809163
:102E80000001909101010C940A0C8091EF010895CA
:102E90009091EF01892B8093EF0108958095909197
:102EA000EF0189238093EF0108951092EF010895B7
:102EB0009091EE01892B8093EE0108958095909179
:102EC000EE0189238093EE0108951092EE0108959A
:102ED0009091ED01892B8093ED010895809590915B
:102EE000ED0189238093ED0108951092ED0108957D
:102EF0008093E40108951092E401089590934701AE
:102F00008093460108958295982F9C7C392F3695A1
:102F10003695282F237344E0249FC0011124932F5A
:102F2000982B292F2A7A2695892F8575880F822B31
:102F300008951F93CF93DF931F92CDB7DEB7998388
:102F40000E948317182F9981892F0E948317212FA0
:102F500030E0322F2227A901482BCA010F90DF91C0
:102F6000CF911F9108956DEE7EEF80E090E00E947A
:102F7000D62760E082E090E00E94C42760E083E012
:102F800090E00E94C42760E084E090E00E94C427A3
:102F900060E085E090E00C94C42780E090E00E941F
:102FA000BE2721E08D3E9E4F09F020E0822F08953C
:102FB00082E090E00C94B62783E090E00C94B62772
:102FC00084E090E00C94B627682F84E090E00C94A5
:102FD000C427FC0131969C01285F3F4F80E091910E
:102FE00091118F5FE217F307D1F708959C01FC015F
:102FF00032969FEF80E04191461789F09F3F19F488
:10300000411101C0982F8F5F8630A9F79F3F39F09B
:10301000F901E90FF11D97FDFA956283089508956E
:10302000FC01329608962081261301C01082319649
:10303000E817F907C1F708950C94F6170C941018C7
:10304000FC01319608961192E817F907E1F7089507
:1030500080911702843039F11092F10120E488E167
:1030600090E00FB6F894A895809360000FBE20936F
:10307000600080E00E94F90783B7817F846083BF8E
:1030800083B7816083BF7894889583B78E7F83BF31
:103090000FB6F894A89580916000886180936000D5
:1030A000109260000FBE089508950895CF930E9476
:1030B00054180E94F50A0E945518C0E08C2F0E94F7
:1030C000A90B892B29F4CF5FCA30C1F780E001C07A
:1030D00081E0CF9108950E94CF110E94FE0B0C94C5
:1030E000F9071F920F920FB60F9211248F939F939F
:1030F000AF93BF938091F101811113C080910D02B4
:1031000090910E02A0910F02B09110024196A11D64
:10311000B11D80930D0290930E02A0930F02B09305
:103120001002BF91AF919F918F910F900FBE0F90A2
:103130001F90189582E084BD93E095BD9AEF97BDEE
:1031400080936E0008952FB7F89480910D029091AE
:103150000E02A0910F02B09110022FBF08952FB759
:10316000F89460910D0270910E0280910F0290917F
:1031700010022FBF0895CF92DF92EF92FF920F932C
:103180001F932FB7F89440910D0250910E02609159
:103190000F02709110022FBF6A017B01EE24FF2401
:1031A0008C0120E030E0C016D106E206F30610F4F0
:1031B000415051099A01281B390BC9011F910F91E8
:1031C000FF90EF90DF90CF90089578941F920F9228
:1031D0000FB60F9211248F939F93AF93BF9380915B
:1031E0000D0290910E02A0910F02B0911002019673
:1031F000A11DB11D80930D0290930E02A0930F02AA
:10320000B0931002BF91AF919F918F910F900FBE1D
:103210000F901F9018950E947624F8942FEF87EA5C
:1032200091E6215080409040E1F700C0000087E027
:1032300090EBDC018093200290932102A093220264
:10324000B09323029CE088E10FB6F894A895809390
:1032500060000FBE90936000FFCF0E94CD178111D8
:1032600002C00E94B3170E94D8178093F0010E94F9
:10327000E01790E090931202809311020E94DC17F5
:10328000682F70E080E090E00C9496158091F40136
:1032900080FF0BC06091050185E0689FB00111249B
:1032A00075956795759567952BC081FF09C06091ED
:1032B000050185E0689FB00111247595679520C0D0
:1032C00082FF07C06091050185E0689FB00111246D
:1032D00017C09091F5019923D1F0609104019617E0
:1032E00088F72091050185E0289F90011124929F85
:1032F000A001939F500D112470E0CA010E948827FD
:103300006038710540F46115710539F002C065E05F
:1033100070E0862F08958FE7089581E008958091E9
:10332000F40180FF08C06091030170E07595679516
:103330007595679521C081FF06C06091030170E01B
:103340007595679519C082FF04C06091030170E014
:1033500010C09091F5019923C1F060910201961778
:10336000A0F780910301899FC001112470E00E94A1
:1033700088276038710528F46115710521F0862FC2
:1033800008958FE7089581E0089561E070E0F4CF3B
:10339000803F21F40E944619819504C0813F29F4A1
:1033A0000E9446198093F8010895823F21F40E94FB
:1033B0004619819504C0833F29F40E9446198093E1
:1033C000F7010895893F19F40E948F1905C08A3FBB
:1033D00031F40E948F1981958093F90108958B3FF4
:1033E00021F40E948F19819504C08C3F29F40E941A
:1033F0008F198093FA010895843F21F48091F6019A
:10340000816017C0853F21F48091F601826011C070
:10341000863F21F48091F60184600BC0873F21F440
:103420008091F601886005C0883F31F48091F601F3
:1034300080618093F60108958D3F21F48091F4011D
:1034400081600BC08E3F21F48091F401826005C041
:103450008F3F29F48091F40184608093F4010895F2
:10346000803F39F48091F80187FF6CC01092F80119
:1034700069C0813F29F48091F8011816BCF362C03D
:103480009091F701823F29F497FF5CC01092F701F9
:1034900059C0833F19F41916CCF354C0893F41F445
:1034A0008091F90118160CF04DC01092F9014AC034
:1034B0008A3F29F48091F90187FF44C0F6CF8B3F02
:1034C00039F48091FA0187FF3DC01092FA013AC0A9
:1034D0008C3F29F48091FA011816BCF333C0843F65
:1034E00021F48091F6018E7F17C0853F21F48091F1
:1034F000F6018D7F11C0863F21F48091F6018B7F0C
:103500000BC0873F21F48091F601877F05C0883F7B
:1035100031F48091F6018F7E8093F60113C08D3FC8
:1035200021F48091F4018E7F0BC08E3F21F48091B5
:10353000F4018D7F05C08F3F29F48091F4018B7FCA
:103540008093F4018091F70181110EC08091F80100
:1035500081110AC08091F901811106C08091FA01A0
:10356000811102C01092F50108958091F00183FF4E
:103570007EC085EA92E00E94EA058091F6011F92E2
:103580008F9380EA92E09F938F930E9483068EE947
:1035900092E00E94EA058091F701282F082E000C86
:1035A000330B3F938F938BE992E09F938F930E940D
:1035B000830689E992E00E94EA058091F801282FAC
:1035C000082E000C330B3F938F9386E992E09F9374
:1035D0008F930E94830684E992E00E94EA0580911D
:1035E000F901282F082E000C330B3F938F9381E9AC
:1035F00092E09F938F930E9483068FE892E00E944F
:10360000EA058091FA01282F082E000C330B3F9316
:103610008F938CE892E09F938F930E94830689E8B2
:1036200092E00E94EA058091F5011F928F9386E84F
:1036300092E09F938F930E94830684E892E00E9419
:10364000EA058091F4011F928F9381E892E09F93A5
:103650008F930E9483068EE792E00E94EA058DB761
:103660009EB74C960FB6F8949EBF0FBE8DBF86EFE7
:1036700091E00E94530C0E94A3189093F301809351
:10368000F20108951F93CF93DF938091F2019091FF
:10369000F3010E94BB18AC019091F501992321F030
:1036A0002091060130E006C0209107018AE0289FA2
:1036B000900111244217530708F46EC08091F7015E
:1036C000C091F801D091F9011091FA01811107C060
:1036D000C1115EC0D1115CC011115AC05DC09F3FC5
:1036E00019F09F5F9093F501181624F40E94461973
:1036F0008093F7018091F70187FF05C00E9446196A
:1037000081958093F7011C1624F40E94461980933A
:10371000F8018091F80187FF05C00E944619819544
:103720008093F8014091F701442379F03091F8013A
:10373000332359F025EB4203A00111245093F701E4
:103740003203C00111249093F8011D1624F40E9445
:103750008F198093F9018091F90187FF05C00E94BC
:103760008F1981958093F901111624F40E948F1905
:103770008093FA018091FA0187FF05C00E948F199A
:1037800081958093FA01DF91CF911F910C94B51A26
:103790009F3F09F0A6CFAECFDF91CF911F91089543
:1037A000E6EFF1E085E0DF011D928A95E9F71092DE
:1037B000F5011092F401089588EC94E00E94EA0566
:1037C0001F9281E08F931F9285E08F938AE794E0A8
:1037D0009F938F930E9483060F900F900F900F90EE
:1037E0000F900F9008958330E9F128F4813061F053
:1037F000823009F10895853009F462C008F449C0A7
:10380000863009F474C0089580910701262F30E0B6
:10381000280F311D2F3F310524F4680F60930701F5
:1038200003C08FEF80930701809107011F928F9350
:1038300083EB93E072C080910601262F30E0280FC1
:10384000311D2F3F310524F4680F6093060103C03A
:103850008FEF80930601809106011F928F9381EA7A
:1038600093E05BC080910501262F30E0280F311DC9
:103870002F3F310524F4680F6093050103C08FEFDB
:1038800080930501809105011F928F938EE893E04C
:1038900044C080910401262F30E0280F311D2F3FB6
:1038A000310524F4680F6093040103C08FEF809307
:1038B0000401809104011F928F9389E793E02DC04A
:1038C00080910301262F30E0280F311D2F3F310555
:1038D00024F4680F6093030103C08FEF809303010A
:1038E000809103011F928F9380E693E016C0809130
:1038F0000201262F30E0280F311D2F3F310524F41F
:10390000680F6093020103C08FEF809302018091E2
:1039100002011F928F9385E493E09F938F930E94FF
:1039200083060F900F900F900F900895833081F1D0
:1039300028F4813059F08230D1F00895853009F4AF
:1039400049C0B8F1863009F456C008958091070146
:10395000681720F4861B8093070102C010920701AC
:10396000809107011F928F9386E393E054C080916A
:103970000601681720F4861B8093060102C010928E
:103980000601809106011F928F9384E293E043C069
:1039900080910501681720F4861B8093050102C001
:1039A00010920501809105011F928F9381E193E0B0
:1039B00032C080910401681720F4861B80930401B3
:1039C00002C010920401809104011F928F938CEF2A
:1039D00092E021C080910301681720F4861B809338
:1039E000030102C010920301809103011F928F9383
:1039F00083EE92E010C080910201681720F4861BCC
:103A00008093020102C010920201809102011F9274
:103A10008F9388EC92E09F938F930E9483060F9080
:103A20000F900F900F900895CF93C82F1F928F93F0
:103A30008DEC95E09F938F930E94830681E090E048
:103A4000A0E0B0E0BC01CD0104C0660F771F881F65
:103A5000991FCA95D2F70E9496150F900F900F905C
:103A60000F90CF910C94CF11CF93873288F58E3180
:103A700008F00BC18E3009F489C0D8F4873009F4FE
:103A800061C08B3009F44FC0863009F004C18091C9
:103A9000F001817F8E7F8093F00184E397E00E94A4
:103AA000EA0581E799E00E94EA0581E08093FC0144
:103AB00047C0863109F4B2C020F4803109F47CC0DB
:103AC000EAC0893109F493C08B3109F44BC0E3C0DB
:103AD000883349F150F4893209F4D9C0853309F4A7
:103AE000D6C0873209F4D3C0D6C0833409F4CFC01E
:103AF00028F48A3308F4CFC08953CAC0883409F047
:103B0000CAC00E94CF1185E599E00E94EA052FEF17
:103B100083ED90E3215080409040E1F700C0000029
:103B20000E940B190DC08BE597E043C08CE399E030
:103B30000E94EA058091F001897F877F8093F001E0
:103B4000C1E0AEC08091F001C82FC095C170C0FB2C
:103B500080F98093F001CC2349F389E499E00E9435
:103B6000EA059EC09091F00191FBCC27C0F981E05D
:103B7000C827892FC0FB81F98093F001CC2319F06D
:103B80008FE299E029C081E299E013C09091F001A1
:103B900092FBCC27C0F981E0C827892FC0FB82F9AE
:103BA0008093F001CC2319F082E199E015C082E006
:103BB00099E00E94EA05C4CF9091F00193FBCC27D5
:103BC000C0F981E0C827892FC0FB83F98093F001F9
:103BD000CC2351F086EF98E00E94EA058091F00135
:103BE00081608093F0015CC089EE98E0E2CF85E2CD
:103BF00097E00E94EA058CE097E00E94EA0589EDD3
:103C000096E00E94EA058FE996E00E94EA0589E6BF
:103C100096E00E94EA058BE396E0CBCF8DE296E03A
:103C20000E94EA050E94FE0B1F928F9383E196E0AB
:103C30009F938F930E948306809112011F928F930E
:103C40008CEF95E09F938F930E94830680910902E9
:103C50001F928F9389EE95E09F938F930E94830626
:103C60000E94AF189F938F937F936F9382ED95E09F
:103C70009F938F930E9483068DB79EB742960FB68F
:103C8000F8949EBF0FBE8DBF5BCF8D5101C080E009
:103C90000E94141D55CF87EE98E00E94EA05C0E00F
:103CA0008C2FCF91089580E0089580E008958E5183
:103CB0008A3030F4E82FF0E0E95DFE4F808108950E
:103CC00080E00895CF93C82F8091FC01813071F07E
:103CD00020F0823009F44BC03FC1E0910001F09127
:103CE00001018081823209F039C107C0E0910001F1
:103CF000F09101018081823261F48C2F0E94531E69
:103D0000811104C08C2F0E94341D2FC081E090E0EF
:103D10002CC08C2F0E94551E811126C0C431E1F0A9
:103D200070F4CB3081F0C031D1F40E94DC1B85EC03
:103D300095E00E94EA0582E08093FC0115C0C9323B
:103D400059F0C83361F484E397E00E94EA0589ECF6
:103D500095E00E94EA0508C01092FC0101C183ECC5
:103D600095E00E94EA05FCC081E08170FBC0C4328E
:103D700028F5CE3108F0C1C0CB30A1F1D0F4C73066
:103D800009F0D0C08EE18093070182E380930601A1
:103D90008AE08093050184E18093040188E08093A8
:103DA000030188E28093020189E694E00E94EA051B
:103DB000BCC0C33149F1C431C1F0B4C0CB3409F443
:103DC000A6C028F4C93289F0C83361F0ABC0C13550
:103DD00009F49BC0C23509F496C0CE3409F0A2C0E4
:103DE0006AE09BC00E94DC1BA0C08091FB0188237D
:103DF00019F01092FB0199C086E794E00E94EA0551
:103E000081E08093FC01AEC080E594E00E94EA0569
:103E10008EE394E00E94EA05809107011F928F9340
:103E20008BE394E09F938F930E94830689E394E051
:103E30000E94EA0587E294E00E94EA05809106016B
:103E40001F928F9384E294E09F938F930E94830646
:103E500082E294E00E94EA0583E194E00E94EA0590
:103E6000809105011F928F9380E194E09F938F933F
:103E70000E9483068EE094E00E94EA058DEF93E0B5
:103E80000E94EA05809104011F928F938AEF93E0CC
:103E90009F938F930E94830688EF93E00E94EA0528
:103EA00083EE93E00E94EA05809103011F928F93B5
:103EB00080EE93E09F938F930E9483068EED93E0B4
:103EC0000E94EA0587EC93E00E94EA0580910201D6
:103ED0001F928F9384EC93E09F938F930E948306AD
:103EE00082EC93E00E94EA058DB79EB748960FB624
:103EF000F8949EBF0FBE8DBF18C08C2F0E94571E16
:103F00008093FB0112C061E003C061E006C06AE07B
:103F10008091FB010E94F31B08C08091FB010E946D
:103F2000961C03C087E694E013C08091FB018823B0
:103F300069F01F928F9381E694E09F938F930E9484
:103F400083060F900F900F900F9004C08EE594E0C1
:103F50000E94EA0581E006C01092FC0180E002C0E8
:103F600080E003CFCF9108958091080208959FB714
:103F7000F8941092FF019FBF90911702943009F0BE
:103F800057C09091E9009F703091EC00232F217071
:103F900030FD20E8922B24E02093E9002091EB00F3
:103FA00020FF43C02091EE0027FF3FC02091FD017C
:103FB000222321F02091E80025FF37C01092FD0157
:103FC00026E03091E80035FD15C0309117023430FD
:103FD00061F53091EB0035FD28C0215021F481E0DE
:103FE0008093FD0122C0EFE9FFE03197F1F700C0B7
:103FF0000000E7CF8093F1008091E80085FD0AC0C2
:104000008091E80080FFFCCF8091E8008E7780935C
:10401000E80006C08FB7F89421E02093FF018FBF1E
:104020009F709093E90080E008959F709093E9005D
:104030008FEF08950F931F93CF93DF9300D01F92BC
:10404000CDB7DEB78C010E94C422823011F08430DB
:1040500019F593E099831B830A839093E9008FEF0E
:104060009091E800815095FD06C095ED9A95F1F785
:1040700000008111F5CF8091E80085FF0DC040E080
:1040800050E063E070E0CE0101960E94E122809151
:10409000E8008E778093E8000F900F900F90DF91EB
:1040A000CF911F910F910895CF93DF9300D01F926E
:1040B000CDB7DEB720911702243031F522E02983F5
:1040C000805891099B838A8383E08093E9008FEF76
:1040D0009091E800815095FD06C095ED9A95F1F715
:1040E00000008111F5CF8091E80085FF0DC040E010
:1040F00050E063E070E0CE0101960E94E1228091E1
:10410000E8008E778093E8000F900F900F90DF917A
:10411000CF910895CF93DF93EC010E94C4228230A7
:1041200011F08430F9F482E08093E9009FEF8091F0
:10413000E800915085FD06C085ED8A95F1F70000F5
:104140009111F5CF8091E80085FF0CC040E050E070
:1041500065E070E0CE010E94E1228091E8008E7758
:104160008093E800DF91CF910895CF93DF93EC0126
:104170000E94C422823011F0843039F581E08093AE
:10418000E9009FEF8091E800915085FD06C085ED24
:104190008A95F1F700009111F5CF8091E80085FF35
:1041A00014C040E050E068E070E0CE010E94E122DF
:1041B0009091E8009E779093E80098E0FE01A0E0DF
:1041C000B2E001900D929A95E1F7DF91CF910895B9
:1041D0008AE999E00E94EA0580911602811109C0DE
:1041E0000E9476240E94D3248091E2008460809310
:1041F000E200089586E999E00E94EA05109216020D
:10420000089582E999E00C94EA058EE899E00C940F
:10421000EA058AE899E00E94EA050C946B1820915F
:10422000FE012F5F822F62E30E947C27992319F001
:104230002093FE0108951092FE018091FF018823D2
:1042400071F180911702843041F58091E9008F70FF
:104250002091EC00922F917020FD90E8892B94E042
:104260009093E9009091EB0090FF14C09091EE00C4
:1042700097FF10C09091E80095FF03C01092F100E5
:10428000F9CF9091E80090FF05C09091E8009E77EB
:104290009093E8008F708093E9001092FF010895D9
:1042A00042E061EC81E00E94F02342E061EC82E0B8
:1042B0000E94F02342E061EC83E00E94F02342E29E
:1042C00061EC84E00C94F02380911902833009F4AE
:1042D00053C030F4813071F0823009F48CC00895FD
:1042E0008A3009F478C08B3009F45EC0893009F057
:1042F0009AC020C080911802813A09F094C0809140
:10430000E800877F8093E80080911C0290911D0255
:10431000892B21F468E080E092E003C060E080E057
:1043200090E070E00E942C238091E8008B778093CE
:10433000E800089580911802813209F074C08091DC
:104340001C0290911D02892B09F06DC08091E8003C
:10435000877F8093E8008091E80082FD05C080910E
:1043600017028111F8CF5FC08091F100809308029D
:104370008091E8008B7753C080911802813A09F050
:1043800052C080911C0290911D02892B09F04BC0F4
:104390008091E800877F8093E8008091E80080FFAB
:1043A000FCCF8091120136C0809118028132D9F57C
:1043B00080911C0290911D02892BA9F58091E80043
:1043C000877F8093E8000E94252480911A028093C1
:1043D00012010C94CF1180911802813221F5809145
:1043E000E800877F8093E8000E94252480911B02CB
:1043F00080930902089580911802813AA1F4809176
:10440000E800877F8093E8008091E80080FFFCCF80
:10441000809109028093F1008091E8008E7780936B
:10442000E8000C942524089584B7877F84BF0FB6D5
:10443000F894A89580916000886180936000109244
:1044400060000FBE80E880936100109261000E94BE
:104450008B0C0E9476240E94D3248091E200846019
:104460008093E20087EB9FE10E947E1778940E9480
:1044700061270E948D0C88E091E00E94F90B89E78A
:1044800099E00E94EA0580911702853089F485E75A
:1044900099E00E94EA050E9428188091150288235D
:1044A00091F30E945618882371F30E94CB22EBCF20
:1044B0000E94BB0CE8CF292F332723303105C9F0E8
:1044C00064F42130310581F02230310509F043C018
:1044D00084E790E02EEB39E042C021323105F1F063
:1044E0002232310541F137C082E190E022E33AE027
:1044F00036C099278130910541F08230910541F015
:10450000892B49F5EAEBF9E005C0EAEAF9E002C0D7
:10451000EEE9F9E0849190E09F0121C064307105DB
:10452000D0F4660F771FFB01E35CFE4F20813181E1
:1045300089E090E014C06430710568F4FB01EE0F6F
:10454000FF1FEB5CFE4F20813181FB01EF5CFE4FD2
:10455000808190E004C080E090E020E030E0FA014B
:104560003183208308950895CF93C82F0E94B322EA
:10457000C0930A02CF91089580911702843011F000
:1045800081E0089582E0089580910A02811102C0BD
:104590000C94BC22089580E189BD82E189BD09B4F3
:1045A00000FEFDCF8091D8008F7D8093D800809150
:1045B000E00082608093E0008091E00081FDFCCF0C
:1045C0000895CF92DF92EF92FF920F931F93CF93B4
:1045D000DF93EC018B016A010E944424811133C0F6
:1045E000C114D10439F0F60180819181081B190BA7
:1045F000C80FD91FE12CF12C0115110519F180917B
:10460000E80085FD16C08091E8008E778093E80071
:10461000C114D10449F0F60180819181E80EF91EA0
:10462000F182E08285E00FC00E944424882321F3B8
:104630000AC089918093F10001501109FFEFEF1A30
:10464000FF0ADACF80E0DF91CF911F910F91FF90A9
:10465000EF90DF90CF90089520911E0230911F02BD
:104660002617370748F06115710539F42091E800E5
:104670002E772093E80001C0B90140E06115710573
:10468000A9F120911702222309F443C0253009F42F
:1046900042C02091E80023FD40C02091E80022FDA7
:1046A00032C02091E80020FFE9CF4091F300209133
:1046B000F20030E0342BFC01CF016115710559F097
:1046C0002830310540F481918093F10061507109E7
:1046D0002F5F3F4FF1CF41E02830310509F040E036
:1046E0002091E8002E772093E800C8CF4111C9CF70
:1046F0000AC080911702882361F0853061F08091B3
:10470000E80083FD0AC08091E80082FFF2CF80E0DC
:10471000089582E0089583E0089581E0089520914E
:104720001E0230911F022617370748F061157105E8
:1047300039F42091E8002E772093E80001C0B901F8
:10474000FC0120E06115710591F180911702882329
:1047500009F440C0853009F43FC08091E80083FD32
:104760003DC08091E80082FD2FC08091E80080FF6D
:10477000E9CF2091F3008091F20090E0922B611537
:10478000710559F08830910540F424912093F1008F
:104790003196615071090196F2CF21E0089709F036
:1047A00020E08091E8008E778093E800CBCF211144
:1047B000CCCF0AC080911702882361F0853061F068
:1047C0008091E80083FD0AC08091E80082FFF2CF6B
:1047D00080E0089582E0089583E0089581E00895DF
:1047E000982F973058F59093E900981739F0709109
:1047F000EC002091ED005091F00003C0242F762FA3
:1048000050E021FF19C03091EB003E7F3093EB0068
:104810003091ED003D7F3093ED003091EB00316041
:104820003093EB007093EC002093ED005093F00078
:104830002091EE0027FF07C09F5FD3CF8F7080933A
:10484000E90081E0089580E008958091180287FFD3
:1048500011C08091E80082FD05C08091170281118E
:10486000F8CF11C08091E8008B770BC080911702C0
:10487000882349F08091E80080FFF8CF8091E8001C
:104880008E778093E80008952091E4003091E50050
:1048900095E64091EC00842F817040FF22C080910A
:1048A000E80080FD1CC080911702882391F08530BC
:1048B00091F08091EB0085FD10C04091E400509193
:1048C000E5004217530729F39A01915011F784E04C
:1048D000089582E0089583E0089581E0089580E0DE
:1048E00008954091E80042FFDECF08950E94E4243D
:1048F0000E94EC24E0EEF0E0808181608083E8EDAE
:10490000F0E080818F77808319BCA7EDB0E08C91B7
:104910008E7F8C9380818F7E808310921602089503
:104920000F931F93CF93DF930E94E4240E94EC2403
:10493000C8EDD0E088818F778883888180688883FC
:1049400088818F7D888319BC109217021092130200
:10495000109215021092140200EE10E0F80180810E
:104960008B7F808388818160888342E060E080E083
:104970000E94F023E1EEF0E080818E7F8083E2EE02
:10498000F0E0808181608083808188608083F8018D
:1049900080818E7F8083888180618883DF91CF9141
:1049A0001F910F910895E8EDF0E080818F7E808364
:1049B000E7EDF0E080818160808384E082BF81E068
:1049C000809316020C949024E8EDF0E080818E7FB5
:1049D00080831092E20008951092DA001092E100B4
:1049E00008951F920F920FB60F9211242F933F93A9
:1049F0004F935F936F937F938F939F93AF93BF93E7
:104A0000EF93FF938091E10082FF0BC08091E20061
:104A100082FF07C08091E1008B7F8093E1000E94BC
:104A20000F218091DA0080FF1FC08091D80080FFA5
:104A30001BC08091DA008E7F8093DA008091D900CC
:104A400080FF0DC080E189BD82E189BD09B400FE0F
:104A5000FDCF81E0809317020E94E82005C019BCB9
:104A6000109217020E94FA208091E10080FF19C085
:104A70008091E20080FF15C08091E2008E7F8093DC
:104A8000E2008091E20080618093E2008091D80092
:104A900080628093D80019BC85E0809317020E9441
:104AA00005218091E10084FF30C08091E20084FF05
:104AB0002CC080E189BD82E189BD09B400FEFDCF33
:104AC0008091D8008F7D8093D8008091E1008F7E07
:104AD0008093E1008091E2008F7E8093E2008091DC
:104AE000E20081608093E20080911302882311F03C
:104AF00084E007C08091E30087FD02C081E001C02F
:104B000083E0809317020E9409218091E10083FFD6
:104B100029C08091E20083FF25C08091E100877F5A
:104B20008093E10082E0809317021092130280913B
:104B3000E1008E7F8093E1008091E2008E7F809380
:104B4000E2008091E20080618093E20042E060E058
:104B500080E00E94F0238091F00088608093F00054
:104B60000E940121FF91EF91BF91AF919F918F9191
:104B70007F916F915F914F913F912F910F900FBE59
:104B80000F901F9018951F920F920FB60F9211243D
:104B90002F933F934F935F936F937F938F939F9345
:104BA000AF93BF93CF93DF93EF93FF93C091E9004F
:104BB000CF708091EC00D82FD17080FDD0E810929A
:104BC000E9008091F000877F8093F00078940E9444
:104BD00007261092E9008091F00088608093F00031
:104BE000CD2BCF70C093E900FF91EF91DF91CF9172
:104BF000BF91AF919F918F917F916F915F914F91F5
:104C00003F912F910F900FBE0F901F9018951F93FB
:104C1000CF93DF93CDB7DEB7AA970FB6F894DEBF78
:104C20000FBECDBFE8E1F2E088E08E0F9091F10079
:104C300091938E13FBCF0E9464218091E80083FF43
:104C400028C18091180290911902492F50E04A30F2
:104C5000510508F01EC1FA01E556FF4F0C949C2740
:104C6000803821F0823809F014C108C08091140204
:104C700090911502992389F082600FC080911C02E7
:104C80008F70873008F005C18093E9008091EB00B8
:104C900085FB882780F91092E9009091E800977FC2
:104CA0009093E8008093F1001092F100D0C0282F7B
:104CB0002D7F09F0EEC0882319F0823061F0E9C041
:104CC00080911A02813009F0E4C0933009F080E04D
:104CD000809315022EC080911A0281112AC0809102
:104CE0001C028F702FEF280F263008F0D2C080935F
:104CF000E9002091EB0020FF1CC0933021F480914B
:104D0000EB00806214C09091EB0090619093EB00F7
:104D100021E030E0A90102C0440F551F8A95E2F757
:104D20004093EA001092EA008091EB008860809343
:104D3000EB001092E9008091E800877F8093E80003
:104D40000E942524A6C08111A4C010911A021F77C9
:104D50008091E3008078812B8093E3008091E800CC
:104D6000877F8093E8000E9425248091E80080FFDF
:104D7000FCCF8091E30080688093E300111102C0B2
:104D800082E001C083E08093170283C080588230A4
:104D900008F07FC080911A0290911B028C3D53E075
:104DA000950779F583E08A838AE289834FB7F8947F
:104DB000DE01139620E03EE051E2E32FF0E0509355
:104DC0005700E49120FF03C0E295EF703F5FEF7062
:104DD0008E2F90E0EA3010F0C79601C0C0968D93F8
:104DE0009D932F5F243149F74FBF8091E800877F63
:104DF0008093E8006AE270E0CE0101960E942C23C5
:104E000015C060911C0270911D02AE014F5F5F4F93
:104E10000E945B22BC01892BE1F19091E800977F11
:104E20009093E80089819A810E948F238091E80005
:104E30008B778093E8002DC0803859F58091E80089
:104E4000877F8093E800809113028093F100809126
:104E5000E8008E7773CF81111CC090911A029230B6
:104E6000C0F48091E800877F8093E800909313025C
:104E70000E94252480911302811106C08091E300D5
:104E800087FD02C081E001C084E0809317020E9488
:104E900050218091E80083FF0AC08091E800877F5D
:104EA0008093E8008091EB0080628093EB00AA96EB
:104EB0000FB6F894DEBF0FBECDBFDF91CF911F912B
:104EC0000895CF93809117028823A1F0C091E90043
:104ED000CF709091EC00892F817090FD80E8C82BF5
:104EE0001092E9008091E80083FD0E940726CF70B0
:104EF000C093E900CF910895991B79E004C0991FF0
:104F0000961708F0961B881F7A95C9F78095089523
:104F100097FB072E16F4009407D077FD09D00E9466
:104F2000A22707FC05D03EF4909581959F4F0895E8
:104F3000709561957F4F0895EE0FFF1F0590F491D6
:104F4000E02D0994AA1BBB1B51E107C0AA1FBB1F80
:104F5000A617B70710F0A61BB70B881F991F5A9505
:104F6000A9F780959095BC01CD010895F999FECFE0
:104F700092BD81BDF89A992780B50895A8E1B0E067
:104F800042E050E00C94DE27262FF999FECF92BD27
:104F900081BDF89A019700B4021639F01FBA20BDFE
:104FA0000FB6F894FA9AF99A0FBE08950196272F32
:104FB0000E94C5270C94C427DC01CB01FC01F999A0
:104FC000FECF06C0F2BDE1BDF89A319600B40D9255
:0C4FD00041505040B8F70895F894FFCF0E
:104FDC00E5012808140A321EB41FB5208A2054207B
:104FEC001A2001F4F5F6F7F1F0913230319734359F
:104FFC003666679395949601020304050607080923
:10500C0000404D3622E90A9C0A660A440AD009E996
:06501C0009020A1B0A0054
:00000001FF
